{
  "_format": "hh-sol-artifact-1",
  "contractName": "MyNFT",
  "sourceName": "contracts/MyNFT.sol",
  "abi": [
    {
      "inputs": [],
      "stateMutability": "nonpayable",
      "type": "constructor"
    },
    {
      "anonymous": false,
      "inputs": [
        {
          "indexed": true,
          "internalType": "address",
          "name": "owner",
          "type": "address"
        },
        {
          "indexed": true,
          "internalType": "address",
          "name": "approved",
          "type": "address"
        },
        {
          "indexed": true,
          "internalType": "uint256",
          "name": "tokenId",
          "type": "uint256"
        }
      ],
      "name": "Approval",
      "type": "event"
    },
    {
      "anonymous": false,
      "inputs": [
        {
          "indexed": true,
          "internalType": "address",
          "name": "owner",
          "type": "address"
        },
        {
          "indexed": true,
          "internalType": "address",
          "name": "operator",
          "type": "address"
        },
        {
          "indexed": false,
          "internalType": "bool",
          "name": "approved",
          "type": "bool"
        }
      ],
      "name": "ApprovalForAll",
      "type": "event"
    },
    {
      "anonymous": false,
      "inputs": [
        {
          "indexed": true,
          "internalType": "uint256",
          "name": "tokenId",
          "type": "uint256"
        },
        {
          "indexed": true,
          "internalType": "address",
          "name": "seller",
          "type": "address"
        },
        {
          "indexed": true,
          "internalType": "address",
          "name": "buyer",
          "type": "address"
        },
        {
          "indexed": false,
          "internalType": "uint256",
          "name": "price",
          "type": "uint256"
        }
      ],
      "name": "NftBought",
      "type": "event"
    },
    {
      "anonymous": false,
      "inputs": [
        {
          "indexed": true,
          "internalType": "uint256",
          "name": "tokenId",
          "type": "uint256"
        },
        {
          "indexed": true,
          "internalType": "address",
          "name": "buyer",
          "type": "address"
        },
        {
          "indexed": false,
          "internalType": "uint256",
          "name": "price",
          "type": "uint256"
        }
      ],
      "name": "NftListed",
      "type": "event"
    },
    {
      "anonymous": false,
      "inputs": [
        {
          "indexed": true,
          "internalType": "uint256",
          "name": "tokenId",
          "type": "uint256"
        },
        {
          "indexed": true,
          "internalType": "address",
          "name": "caller",
          "type": "address"
        }
      ],
      "name": "NftListingCancelled",
      "type": "event"
    },
    {
      "anonymous": false,
      "inputs": [
        {
          "indexed": true,
          "internalType": "uint256",
          "name": "tokenId",
          "type": "uint256"
        },
        {
          "indexed": true,
          "internalType": "address",
          "name": "caller",
          "type": "address"
        },
        {
          "indexed": false,
          "internalType": "uint256",
          "name": "newPrice",
          "type": "uint256"
        }
      ],
      "name": "NftListingUpdated",
      "type": "event"
    },
    {
      "anonymous": false,
      "inputs": [
        {
          "indexed": true,
          "internalType": "address",
          "name": "previousOwner",
          "type": "address"
        },
        {
          "indexed": true,
          "internalType": "address",
          "name": "newOwner",
          "type": "address"
        }
      ],
      "name": "OwnershipTransferred",
      "type": "event"
    },
    {
      "anonymous": false,
      "inputs": [
        {
          "indexed": true,
          "internalType": "address",
          "name": "from",
          "type": "address"
        },
        {
          "indexed": true,
          "internalType": "address",
          "name": "to",
          "type": "address"
        },
        {
          "indexed": true,
          "internalType": "uint256",
          "name": "tokenId",
          "type": "uint256"
        }
      ],
      "name": "Transfer",
      "type": "event"
    },
    {
      "inputs": [
        {
          "internalType": "address",
          "name": "to",
          "type": "address"
        },
        {
          "internalType": "uint256",
          "name": "tokenId",
          "type": "uint256"
        }
      ],
      "name": "approve",
      "outputs": [],
      "stateMutability": "nonpayable",
      "type": "function"
    },
    {
      "inputs": [
        {
          "internalType": "address",
          "name": "owner",
          "type": "address"
        }
      ],
      "name": "balanceOf",
      "outputs": [
        {
          "internalType": "uint256",
          "name": "",
          "type": "uint256"
        }
      ],
      "stateMutability": "view",
      "type": "function"
    },
    {
      "inputs": [
        {
          "internalType": "uint256",
          "name": "tokenId",
          "type": "uint256"
        }
      ],
      "name": "buyNft",
      "outputs": [],
      "stateMutability": "payable",
      "type": "function"
    },
    {
      "inputs": [
        {
          "internalType": "uint256",
          "name": "tokenId",
          "type": "uint256"
        }
      ],
      "name": "cancelListing",
      "outputs": [],
      "stateMutability": "nonpayable",
      "type": "function"
    },
    {
      "inputs": [
        {
          "internalType": "address",
          "name": "to",
          "type": "address"
        },
        {
          "internalType": "string",
          "name": "uri",
          "type": "string"
        }
      ],
      "name": "createNft",
      "outputs": [],
      "stateMutability": "nonpayable",
      "type": "function"
    },
    {
      "inputs": [
        {
          "internalType": "uint256",
          "name": "tokenId",
          "type": "uint256"
        }
      ],
      "name": "getActiveItem",
      "outputs": [
        {
          "components": [
            {
              "internalType": "address",
              "name": "seller",
              "type": "address"
            },
            {
              "internalType": "uint256",
              "name": "price",
              "type": "uint256"
            },
            {
              "internalType": "string",
              "name": "url",
              "type": "string"
            }
          ],
          "internalType": "struct MyNFT.ListedNFT",
          "name": "",
          "type": "tuple"
        }
      ],
      "stateMutability": "view",
      "type": "function"
    },
    {
      "inputs": [
        {
          "internalType": "uint256",
          "name": "tokenId",
          "type": "uint256"
        }
      ],
      "name": "getApproved",
      "outputs": [
        {
          "internalType": "address",
          "name": "",
          "type": "address"
        }
      ],
      "stateMutability": "view",
      "type": "function"
    },
    {
      "inputs": [
        {
          "internalType": "address",
          "name": "owner",
          "type": "address"
        },
        {
          "internalType": "address",
          "name": "operator",
          "type": "address"
        }
      ],
      "name": "isApprovedForAll",
      "outputs": [
        {
          "internalType": "bool",
          "name": "",
          "type": "bool"
        }
      ],
      "stateMutability": "view",
      "type": "function"
    },
    {
      "inputs": [
        {
          "internalType": "uint256",
          "name": "tokenId",
          "type": "uint256"
        },
        {
          "internalType": "uint256",
          "name": "price",
          "type": "uint256"
        }
      ],
      "name": "listNft",
      "outputs": [],
      "stateMutability": "nonpayable",
      "type": "function"
    },
    {
      "inputs": [],
      "name": "name",
      "outputs": [
        {
          "internalType": "string",
          "name": "",
          "type": "string"
        }
      ],
      "stateMutability": "view",
      "type": "function"
    },
    {
      "inputs": [],
      "name": "owner",
      "outputs": [
        {
          "internalType": "address",
          "name": "",
          "type": "address"
        }
      ],
      "stateMutability": "view",
      "type": "function"
    },
    {
      "inputs": [
        {
          "internalType": "uint256",
          "name": "tokenId",
          "type": "uint256"
        }
      ],
      "name": "ownerOf",
      "outputs": [
        {
          "internalType": "address",
          "name": "",
          "type": "address"
        }
      ],
      "stateMutability": "view",
      "type": "function"
    },
    {
      "inputs": [],
      "name": "renounceOwnership",
      "outputs": [],
      "stateMutability": "nonpayable",
      "type": "function"
    },
    {
      "inputs": [
        {
          "internalType": "address",
          "name": "from",
          "type": "address"
        },
        {
          "internalType": "address",
          "name": "to",
          "type": "address"
        },
        {
          "internalType": "uint256",
          "name": "tokenId",
          "type": "uint256"
        }
      ],
      "name": "safeTransferFrom",
      "outputs": [],
      "stateMutability": "nonpayable",
      "type": "function"
    },
    {
      "inputs": [
        {
          "internalType": "address",
          "name": "from",
          "type": "address"
        },
        {
          "internalType": "address",
          "name": "to",
          "type": "address"
        },
        {
          "internalType": "uint256",
          "name": "tokenId",
          "type": "uint256"
        },
        {
          "internalType": "bytes",
          "name": "data",
          "type": "bytes"
        }
      ],
      "name": "safeTransferFrom",
      "outputs": [],
      "stateMutability": "nonpayable",
      "type": "function"
    },
    {
      "inputs": [
        {
          "internalType": "address",
          "name": "operator",
          "type": "address"
        },
        {
          "internalType": "bool",
          "name": "approved",
          "type": "bool"
        }
      ],
      "name": "setApprovalForAll",
      "outputs": [],
      "stateMutability": "nonpayable",
      "type": "function"
    },
    {
      "inputs": [
        {
          "internalType": "bytes4",
          "name": "interfaceId",
          "type": "bytes4"
        }
      ],
      "name": "supportsInterface",
      "outputs": [
        {
          "internalType": "bool",
          "name": "",
          "type": "bool"
        }
      ],
      "stateMutability": "view",
      "type": "function"
    },
    {
      "inputs": [],
      "name": "symbol",
      "outputs": [
        {
          "internalType": "string",
          "name": "",
          "type": "string"
        }
      ],
      "stateMutability": "view",
      "type": "function"
    },
    {
      "inputs": [
        {
          "internalType": "uint256",
          "name": "index",
          "type": "uint256"
        }
      ],
      "name": "tokenByIndex",
      "outputs": [
        {
          "internalType": "uint256",
          "name": "",
          "type": "uint256"
        }
      ],
      "stateMutability": "view",
      "type": "function"
    },
    {
      "inputs": [
        {
          "internalType": "address",
          "name": "owner",
          "type": "address"
        },
        {
          "internalType": "uint256",
          "name": "index",
          "type": "uint256"
        }
      ],
      "name": "tokenOfOwnerByIndex",
      "outputs": [
        {
          "internalType": "uint256",
          "name": "",
          "type": "uint256"
        }
      ],
      "stateMutability": "view",
      "type": "function"
    },
    {
      "inputs": [
        {
          "internalType": "uint256",
          "name": "tokenId",
          "type": "uint256"
        }
      ],
      "name": "tokenURI",
      "outputs": [
        {
          "internalType": "string",
          "name": "",
          "type": "string"
        }
      ],
      "stateMutability": "view",
      "type": "function"
    },
    {
      "inputs": [],
      "name": "totalSupply",
      "outputs": [
        {
          "internalType": "uint256",
          "name": "",
          "type": "uint256"
        }
      ],
      "stateMutability": "view",
      "type": "function"
    },
    {
      "inputs": [
        {
          "internalType": "address",
          "name": "from",
          "type": "address"
        },
        {
          "internalType": "address",
          "name": "to",
          "type": "address"
        },
        {
          "internalType": "uint256",
          "name": "tokenId",
          "type": "uint256"
        }
      ],
      "name": "transferFrom",
      "outputs": [],
      "stateMutability": "nonpayable",
      "type": "function"
    },
    {
      "inputs": [
        {
          "internalType": "address",
          "name": "newOwner",
          "type": "address"
        }
      ],
      "name": "transferOwnership",
      "outputs": [],
      "stateMutability": "nonpayable",
      "type": "function"
    },
    {
      "inputs": [
        {
          "internalType": "uint256",
          "name": "tokenId",
          "type": "uint256"
        },
        {
          "internalType": "uint256",
          "name": "newPrice",
          "type": "uint256"
        }
      ],
      "name": "updateListing",
      "outputs": [],
      "stateMutability": "nonpayable",
      "type": "function"
    }
  ],
  "bytecode": "0x60806040523480156200001157600080fd5b506040518060400160405280600581526020017f4d794e46540000000000000000000000000000000000000000000000000000008152506040518060400160405280600481526020017f4d4e465400000000000000000000000000000000000000000000000000000000815250816000908051906020019062000096929190620001a6565b508060019080519060200190620000af929190620001a6565b505050620000d2620000c6620000d860201b60201c565b620000e060201b60201c565b620002bb565b600033905090565b6000600b60009054906101000a900473ffffffffffffffffffffffffffffffffffffffff16905081600b60006101000a81548173ffffffffffffffffffffffffffffffffffffffff021916908373ffffffffffffffffffffffffffffffffffffffff1602179055508173ffffffffffffffffffffffffffffffffffffffff168173ffffffffffffffffffffffffffffffffffffffff167f8be0079c531659141344cd1fd0a4f28419497f9722a3daafe3b4186f6b6457e060405160405180910390a35050565b828054620001b49062000256565b90600052602060002090601f016020900481019282620001d8576000855562000224565b82601f10620001f357805160ff191683800117855562000224565b8280016001018555821562000224579182015b828111156200022357825182559160200191906001019062000206565b5b50905062000233919062000237565b5090565b5b808211156200025257600081600090555060010162000238565b5090565b600060028204905060018216806200026f57607f821691505b602082108114156200028657620002856200028c565b5b50919050565b7f4e487b7100000000000000000000000000000000000000000000000000000000600052602260045260246000fd5b614cb280620002cb6000396000f3fe6080604052600436106101665760003560e01c80635ee68aa7116100d1578063a22cb4651161008a578063c87b56dd11610064578063c87b56dd1461053d578063e985e9c51461057a578063f2fde38b146105b7578063fe8723e1146105e057610166565b8063a22cb465146104c2578063b4ef6d48146104eb578063b88d4fde1461051457610166565b80635ee68aa71461039e5780636352211e146103db57806370a0823114610418578063715018a6146104555780638da5cb5b1461046c57806395d89b411461049757610166565b806323b872dd1161012357806323b872dd1461028d578063243adbdd146102b65780632f745c59146102d2578063305a67a81461030f57806342842e0e146103385780634f6ccce71461036157610166565b80630179ea881461016b57806301ffc9a71461019457806306fdde03146101d1578063081812fc146101fc578063095ea7b31461023957806318160ddd14610262575b600080fd5b34801561017757600080fd5b50610192600480360381019061018d9190613a08565b610609565b005b3480156101a057600080fd5b506101bb60048036038101906101b6919061398d565b61086b565b6040516101c89190613fe9565b60405180910390f35b3480156101dd57600080fd5b506101e661087d565b6040516101f39190614004565b60405180910390f35b34801561020857600080fd5b50610223600480360381019061021e91906139df565b61090f565b6040516102309190613f82565b60405180910390f35b34801561024557600080fd5b50610260600480360381019061025b9190613951565b610955565b005b34801561026e57600080fd5b50610277610a6d565b6040516102849190614368565b60405180910390f35b34801561029957600080fd5b506102b460048036038101906102af91906137f7565b610a7a565b005b6102d060048036038101906102cb91906139df565b610ada565b005b3480156102de57600080fd5b506102f960048036038101906102f49190613951565b611073565b6040516103069190614368565b60405180910390f35b34801561031b57600080fd5b50610336600480360381019061033191906139df565b611118565b005b34801561034457600080fd5b5061035f600480360381019061035a91906137f7565b611392565b005b34801561036d57600080fd5b50610388600480360381019061038391906139df565b6113b2565b6040516103959190614368565b60405180910390f35b3480156103aa57600080fd5b506103c560048036038101906103c091906139df565b611449565b6040516103d29190614346565b60405180910390f35b3480156103e757600080fd5b5061040260048036038101906103fd91906139df565b611568565b60405161040f9190613f82565b60405180910390f35b34801561042457600080fd5b5061043f600480360381019061043a9190613792565b6115ef565b60405161044c9190614368565b60405180910390f35b34801561046157600080fd5b5061046a6116a7565b005b34801561047857600080fd5b506104816116bb565b60405161048e9190613f82565b60405180910390f35b3480156104a357600080fd5b506104ac6116e5565b6040516104b99190614004565b60405180910390f35b3480156104ce57600080fd5b506104e960048036038101906104e491906138c1565b611777565b005b3480156104f757600080fd5b50610512600480360381019061050d91906138fd565b61178d565b005b34801561052057600080fd5b5061053b60048036038101906105369190613846565b6117be565b005b34801561054957600080fd5b50610564600480360381019061055f91906139df565b611820565b6040516105719190614004565b60405180910390f35b34801561058657600080fd5b506105a1600480360381019061059c91906137bb565b611832565b6040516105ae9190613fe9565b60405180910390f35b3480156105c357600080fd5b506105de60048036038101906105d99190613792565b6118c6565b005b3480156105ec57600080fd5b5061060760048036038101906106029190613a08565b61194a565b005b816000600c60008381526020019081526020016000206040518060600160405290816000820160009054906101000a900473ffffffffffffffffffffffffffffffffffffffff1673ffffffffffffffffffffffffffffffffffffffff1673ffffffffffffffffffffffffffffffffffffffff1681526020016001820154815260200160028201805461069a90614553565b80601f01602080910402602001604051908101604052809291908181526020018280546106c690614553565b80156107135780601f106106e857610100808354040283529160200191610713565b820191906000526020600020905b8154815290600101906020018083116106f657829003601f168201915b50505050508152505090506000816020015111610765576040517f08c379a000000000000000000000000000000000000000000000000000000000815260040161075c90614126565b60405180910390fd5b8333600061077283611568565b90508073ffffffffffffffffffffffffffffffffffffffff168273ffffffffffffffffffffffffffffffffffffffff16146107e2576040517f08c379a00000000000000000000000000000000000000000000000000000000081526004016107d990614186565b60405180910390fd5b85600c6000898152602001908152602001600020600101819055503373ffffffffffffffffffffffffffffffffffffffff16600c6000898152602001908152602001600020600101547f8716e33ec68567f2083ce44f2a8290a0b578dd7d2393af4581975cc60c6df92d8860405161085a9190614368565b60405180910390a350505050505050565b600061087682611c87565b9050919050565b60606000805461088c90614553565b80601f01602080910402602001604051908101604052809291908181526020018280546108b890614553565b80156109055780601f106108da57610100808354040283529160200191610905565b820191906000526020600020905b8154815290600101906020018083116108e857829003601f168201915b5050505050905090565b600061091a82611d01565b6004600083815260200190815260200160002060009054906101000a900473ffffffffffffffffffffffffffffffffffffffff169050919050565b600061096082611568565b90508073ffffffffffffffffffffffffffffffffffffffff168373ffffffffffffffffffffffffffffffffffffffff1614156109d1576040517f08c379a00000000000000000000000000000000000000000000000000000000081526004016109c890614286565b60405180910390fd5b8073ffffffffffffffffffffffffffffffffffffffff166109f0611d4c565b73ffffffffffffffffffffffffffffffffffffffff161480610a1f5750610a1e81610a19611d4c565b611832565b5b610a5e576040517f08c379a0000000000000000000000000000000000000000000000000000000008152600401610a55906142a6565b60405180910390fd5b610a688383611d54565b505050565b6000600880549050905090565b610a8b610a85611d4c565b82611e0d565b610aca576040517f08c379a0000000000000000000000000000000000000000000000000000000008152600401610ac190614046565b60405180910390fd5b610ad5838383611ea2565b505050565b806000600c60008381526020019081526020016000206040518060600160405290816000820160009054906101000a900473ffffffffffffffffffffffffffffffffffffffff1673ffffffffffffffffffffffffffffffffffffffff1673ffffffffffffffffffffffffffffffffffffffff16815260200160018201548152602001600282018054610b6b90614553565b80601f0160208091040260200160405190810160405280929190818152602001828054610b9790614553565b8015610be45780601f10610bb957610100808354040283529160200191610be4565b820191906000526020600020905b815481529060010190602001808311610bc757829003601f168201915b50505050508152505090506000816020015111610c36576040517f08c379a0000000000000000000000000000000000000000000000000000000008152600401610c2d90614126565b60405180910390fd5b600073ffffffffffffffffffffffffffffffffffffffff16600c600085815260200190815260200160002060000160009054906101000a900473ffffffffffffffffffffffffffffffffffffffff1673ffffffffffffffffffffffffffffffffffffffff161415610cdc576040517f08c379a0000000000000000000000000000000000000000000000000000000008152600401610cd390614326565b60405180910390fd5b600c600084815260200190815260200160002060000160009054906101000a900473ffffffffffffffffffffffffffffffffffffffff1673ffffffffffffffffffffffffffffffffffffffff163373ffffffffffffffffffffffffffffffffffffffff161415610d81576040517f08c379a0000000000000000000000000000000000000000000000000000000008152600401610d78906140e6565b60405180910390fd5b600c600084815260200190815260200160002060010154341015610dda576040517f08c379a0000000000000000000000000000000000000000000000000000000008152600401610dd190614026565b60405180910390fd5b6000600c60008581526020019081526020016000206040518060600160405290816000820160009054906101000a900473ffffffffffffffffffffffffffffffffffffffff1673ffffffffffffffffffffffffffffffffffffffff1673ffffffffffffffffffffffffffffffffffffffff16815260200160018201548152602001600282018054610e6a90614553565b80601f0160208091040260200160405190810160405280929190818152602001828054610e9690614553565b8015610ee35780601f10610eb857610100808354040283529160200191610ee3565b820191906000526020600020905b815481529060010190602001808311610ec657829003601f168201915b5050505050815250509050600c6000858152602001908152602001600020600080820160006101000a81549073ffffffffffffffffffffffffffffffffffffffff02191690556001820160009055600282016000610f41919061353f565b5050610f5281600001513386611ea2565b6000816000015173ffffffffffffffffffffffffffffffffffffffff1634604051610f7c90613f6d565b60006040518083038185875af1925050503d8060008114610fb9576040519150601f19603f3d011682016040523d82523d6000602084013e610fbe565b606091505b5050905080611002576040517f08c379a0000000000000000000000000000000000000000000000000000000008152600401610ff990614206565b60405180910390fd5b3373ffffffffffffffffffffffffffffffffffffffff16826000015173ffffffffffffffffffffffffffffffffffffffff16867f5837dc3eeed2d2b1d75de7e85c87404936759686b473d2cbc06bc59f96060cff346040516110649190614368565b60405180910390a45050505050565b600061107e836115ef565b82106110bf576040517f08c379a00000000000000000000000000000000000000000000000000000000081526004016110b690614066565b60405180910390fd5b600660008473ffffffffffffffffffffffffffffffffffffffff1673ffffffffffffffffffffffffffffffffffffffff168152602001908152602001600020600083815260200190815260200160002054905092915050565b806000600c60008381526020019081526020016000206040518060600160405290816000820160009054906101000a900473ffffffffffffffffffffffffffffffffffffffff1673ffffffffffffffffffffffffffffffffffffffff1673ffffffffffffffffffffffffffffffffffffffff168152602001600182015481526020016002820180546111a990614553565b80601f01602080910402602001604051908101604052809291908181526020018280546111d590614553565b80156112225780601f106111f757610100808354040283529160200191611222565b820191906000526020600020905b81548152906001019060200180831161120557829003601f168201915b50505050508152505090506000816020015111611274576040517f08c379a000000000000000000000000000000000000000000000000000000000815260040161126b90614126565b60405180910390fd5b8233600061128183611568565b90508073ffffffffffffffffffffffffffffffffffffffff168273ffffffffffffffffffffffffffffffffffffffff16146112f1576040517f08c379a00000000000000000000000000000000000000000000000000000000081526004016112e890614186565b60405180910390fd5b600c6000878152602001908152602001600020600080820160006101000a81549073ffffffffffffffffffffffffffffffffffffffff02191690556001820160009055600282016000611344919061353f565b50503373ffffffffffffffffffffffffffffffffffffffff16867fd742220d59c96fcc1011fb762c3fbef62dba60755d629cf48b9d927c3823461260405160405180910390a3505050505050565b6113ad838383604051806020016040528060008152506117be565b505050565b60006113bc610a6d565b82106113fd576040517f08c379a00000000000000000000000000000000000000000000000000000000081526004016113f4906142c6565b60405180910390fd5b60088281548110611437577f4e487b7100000000000000000000000000000000000000000000000000000000600052603260045260246000fd5b90600052602060002001549050919050565b61145161357f565b600c60008381526020019081526020016000206040518060600160405290816000820160009054906101000a900473ffffffffffffffffffffffffffffffffffffffff1673ffffffffffffffffffffffffffffffffffffffff1673ffffffffffffffffffffffffffffffffffffffff168152602001600182015481526020016002820180546114df90614553565b80601f016020809104026020016040519081016040528092919081815260200182805461150b90614553565b80156115585780601f1061152d57610100808354040283529160200191611558565b820191906000526020600020905b81548152906001019060200180831161153b57829003601f168201915b5050505050815250509050919050565b6000806115748361219c565b9050600073ffffffffffffffffffffffffffffffffffffffff168173ffffffffffffffffffffffffffffffffffffffff1614156115e6576040517f08c379a00000000000000000000000000000000000000000000000000000000081526004016115dd90614266565b60405180910390fd5b80915050919050565b60008073ffffffffffffffffffffffffffffffffffffffff168273ffffffffffffffffffffffffffffffffffffffff161415611660576040517f08c379a0000000000000000000000000000000000000000000000000000000008152600401611657906141c6565b60405180910390fd5b600360008373ffffffffffffffffffffffffffffffffffffffff1673ffffffffffffffffffffffffffffffffffffffff168152602001908152602001600020549050919050565b6116af6121d9565b6116b96000612257565b565b6000600b60009054906101000a900473ffffffffffffffffffffffffffffffffffffffff16905090565b6060600180546116f490614553565b80601f016020809104026020016040519081016040528092919081815260200182805461172090614553565b801561176d5780601f106117425761010080835404028352916020019161176d565b820191906000526020600020905b81548152906001019060200180831161175057829003601f168201915b5050505050905090565b611789611782611d4c565b838361231d565b5050565b6000611799600d61248a565b90506117a5600d612498565b6117af83826124ae565b6117b981836124cc565b505050565b6117cf6117c9611d4c565b83611e0d565b61180e576040517f08c379a000000000000000000000000000000000000000000000000000000000815260040161180590614046565b60405180910390fd5b61181a84848484612540565b50505050565b606061182b8261259c565b9050919050565b6000600560008473ffffffffffffffffffffffffffffffffffffffff1673ffffffffffffffffffffffffffffffffffffffff16815260200190815260200160002060008373ffffffffffffffffffffffffffffffffffffffff1673ffffffffffffffffffffffffffffffffffffffff16815260200190815260200160002060009054906101000a900460ff16905092915050565b6118ce6121d9565b600073ffffffffffffffffffffffffffffffffffffffff168173ffffffffffffffffffffffffffffffffffffffff16141561193e576040517f08c379a0000000000000000000000000000000000000000000000000000000008152600401611935906140a6565b60405180910390fd5b61194781612257565b50565b816000600c60008381526020019081526020016000206040518060600160405290816000820160009054906101000a900473ffffffffffffffffffffffffffffffffffffffff1673ffffffffffffffffffffffffffffffffffffffff1673ffffffffffffffffffffffffffffffffffffffff168152602001600182015481526020016002820180546119db90614553565b80601f0160208091040260200160405190810160405280929190818152602001828054611a0790614553565b8015611a545780601f10611a2957610100808354040283529160200191611a54565b820191906000526020600020905b815481529060010190602001808311611a3757829003601f168201915b5050505050815250509050600081602001511115611aa7576040517f08c379a0000000000000000000000000000000000000000000000000000000008152600401611a9e90614306565b60405180910390fd5b83336000611ab483611568565b90508073ffffffffffffffffffffffffffffffffffffffff168273ffffffffffffffffffffffffffffffffffffffff1614611b24576040517f08c379a0000000000000000000000000000000000000000000000000000000008152600401611b1b90614186565b60405180910390fd5b611b2d876126af565b611b6c576040517f08c379a0000000000000000000000000000000000000000000000000000000008152600401611b63906141a6565b60405180910390fd5b6000611b7788611820565b905060405180606001604052803373ffffffffffffffffffffffffffffffffffffffff16815260200188815260200182815250600c60008a815260200190815260200160002060008201518160000160006101000a81548173ffffffffffffffffffffffffffffffffffffffff021916908373ffffffffffffffffffffffffffffffffffffffff160217905550602082015181600101556040820151816002019080519060200190611c2a9291906135b6565b509050503373ffffffffffffffffffffffffffffffffffffffff16887f6decc0edd62bc66dd462d841e96d5888ee2452307a8352b9bd66e442d6a23ee089604051611c759190614368565b60405180910390a35050505050505050565b60007f780e9d63000000000000000000000000000000000000000000000000000000007bffffffffffffffffffffffffffffffffffffffffffffffffffffffff1916827bffffffffffffffffffffffffffffffffffffffffffffffffffffffff19161480611cfa5750611cf9826126f0565b5b9050919050565b611d0a816126af565b611d49576040517f08c379a0000000000000000000000000000000000000000000000000000000008152600401611d4090614266565b60405180910390fd5b50565b600033905090565b816004600083815260200190815260200160002060006101000a81548173ffffffffffffffffffffffffffffffffffffffff021916908373ffffffffffffffffffffffffffffffffffffffff160217905550808273ffffffffffffffffffffffffffffffffffffffff16611dc783611568565b73ffffffffffffffffffffffffffffffffffffffff167f8c5be1e5ebec7d5bd14f71427d1e84f3dd0314c0f7b2291e5b200ac8c7c3b92560405160405180910390a45050565b600080611e1983611568565b90508073ffffffffffffffffffffffffffffffffffffffff168473ffffffffffffffffffffffffffffffffffffffff161480611e5b5750611e5a8185611832565b5b80611e9957508373ffffffffffffffffffffffffffffffffffffffff16611e818461090f565b73ffffffffffffffffffffffffffffffffffffffff16145b91505092915050565b8273ffffffffffffffffffffffffffffffffffffffff16611ec282611568565b73ffffffffffffffffffffffffffffffffffffffff1614611f18576040517f08c379a0000000000000000000000000000000000000000000000000000000008152600401611f0f906140c6565b60405180910390fd5b600073ffffffffffffffffffffffffffffffffffffffff168273ffffffffffffffffffffffffffffffffffffffff161415611f88576040517f08c379a0000000000000000000000000000000000000000000000000000000008152600401611f7f90614146565b60405180910390fd5b611f9583838360016127d2565b8273ffffffffffffffffffffffffffffffffffffffff16611fb582611568565b73ffffffffffffffffffffffffffffffffffffffff161461200b576040517f08c379a0000000000000000000000000000000000000000000000000000000008152600401612002906140c6565b60405180910390fd5b6004600082815260200190815260200160002060006101000a81549073ffffffffffffffffffffffffffffffffffffffff02191690556001600360008573ffffffffffffffffffffffffffffffffffffffff1673ffffffffffffffffffffffffffffffffffffffff168152602001908152602001600020600082825403925050819055506001600360008473ffffffffffffffffffffffffffffffffffffffff1673ffffffffffffffffffffffffffffffffffffffff16815260200190815260200160002060008282540192505081905550816002600083815260200190815260200160002060006101000a81548173ffffffffffffffffffffffffffffffffffffffff021916908373ffffffffffffffffffffffffffffffffffffffff160217905550808273ffffffffffffffffffffffffffffffffffffffff168473ffffffffffffffffffffffffffffffffffffffff167fddf252ad1be2c89b69c2b068fc378daa952ba7f163c4a11628f55a4df523b3ef60405160405180910390a461219783838360016127e4565b505050565b60006002600083815260200190815260200160002060009054906101000a900473ffffffffffffffffffffffffffffffffffffffff169050919050565b6121e1611d4c565b73ffffffffffffffffffffffffffffffffffffffff166121ff6116bb565b73ffffffffffffffffffffffffffffffffffffffff1614612255576040517f08c379a000000000000000000000000000000000000000000000000000000000815260040161224c90614246565b60405180910390fd5b565b6000600b60009054906101000a900473ffffffffffffffffffffffffffffffffffffffff16905081600b60006101000a81548173ffffffffffffffffffffffffffffffffffffffff021916908373ffffffffffffffffffffffffffffffffffffffff1602179055508173ffffffffffffffffffffffffffffffffffffffff168173ffffffffffffffffffffffffffffffffffffffff167f8be0079c531659141344cd1fd0a4f28419497f9722a3daafe3b4186f6b6457e060405160405180910390a35050565b8173ffffffffffffffffffffffffffffffffffffffff168373ffffffffffffffffffffffffffffffffffffffff16141561238c576040517f08c379a000000000000000000000000000000000000000000000000000000000815260040161238390614166565b60405180910390fd5b80600560008573ffffffffffffffffffffffffffffffffffffffff1673ffffffffffffffffffffffffffffffffffffffff16815260200190815260200160002060008473ffffffffffffffffffffffffffffffffffffffff1673ffffffffffffffffffffffffffffffffffffffff16815260200190815260200160002060006101000a81548160ff0219169083151502179055508173ffffffffffffffffffffffffffffffffffffffff168373ffffffffffffffffffffffffffffffffffffffff167f17307eab39ab6107e8899845ad3d59bd9653f200f220920489ca2b5937696c318360405161247d9190613fe9565b60405180910390a3505050565b600081600001549050919050565b6001816000016000828254019250508190555050565b6124c88282604051806020016040528060008152506127ea565b5050565b6124d5826126af565b612514576040517f08c379a000000000000000000000000000000000000000000000000000000000815260040161250b906141e6565b60405180910390fd5b80600a6000848152602001908152602001600020908051906020019061253b9291906135b6565b505050565b61254b848484611ea2565b61255784848484612845565b612596576040517f08c379a000000000000000000000000000000000000000000000000000000000815260040161258d90614086565b60405180910390fd5b50505050565b60606125a782611d01565b6000600a600084815260200190815260200160002080546125c790614553565b80601f01602080910402602001604051908101604052809291908181526020018280546125f390614553565b80156126405780601f1061261557610100808354040283529160200191612640565b820191906000526020600020905b81548152906001019060200180831161262357829003601f168201915b5050505050905060006126516129dc565b90506000815114156126675781925050506126aa565b60008251111561269c578082604051602001612684929190613f49565b604051602081830303815290604052925050506126aa565b6126a5846129f3565b925050505b919050565b60008073ffffffffffffffffffffffffffffffffffffffff166126d18361219c565b73ffffffffffffffffffffffffffffffffffffffff1614159050919050565b60007f80ac58cd000000000000000000000000000000000000000000000000000000007bffffffffffffffffffffffffffffffffffffffffffffffffffffffff1916827bffffffffffffffffffffffffffffffffffffffffffffffffffffffff191614806127bb57507f5b5e139f000000000000000000000000000000000000000000000000000000007bffffffffffffffffffffffffffffffffffffffffffffffffffffffff1916827bffffffffffffffffffffffffffffffffffffffffffffffffffffffff1916145b806127cb57506127ca82612a5b565b5b9050919050565b6127de84848484612ac5565b50505050565b50505050565b6127f48383612c25565b6128016000848484612845565b612840576040517f08c379a000000000000000000000000000000000000000000000000000000000815260040161283790614086565b60405180910390fd5b505050565b60006128668473ffffffffffffffffffffffffffffffffffffffff16612e43565b156129cf578373ffffffffffffffffffffffffffffffffffffffff1663150b7a0261288f611d4c565b8786866040518563ffffffff1660e01b81526004016128b19493929190613f9d565b602060405180830381600087803b1580156128cb57600080fd5b505af19250505080156128fc57506040513d601f19601f820116820180604052508101906128f991906139b6565b60015b61297f573d806000811461292c576040519150601f19603f3d011682016040523d82523d6000602084013e612931565b606091505b50600081511415612977576040517f08c379a000000000000000000000000000000000000000000000000000000000815260040161296e90614086565b60405180910390fd5b805181602001fd5b63150b7a0260e01b7bffffffffffffffffffffffffffffffffffffffffffffffffffffffff1916817bffffffffffffffffffffffffffffffffffffffffffffffffffffffff1916149150506129d4565b600190505b949350505050565b606060405180602001604052806000815250905090565b60606129fe82611d01565b6000612a086129dc565b90506000815111612a285760405180602001604052806000815250612a53565b80612a3284612e66565b604051602001612a43929190613f49565b6040516020818303038152906040525b915050919050565b60007f01ffc9a7000000000000000000000000000000000000000000000000000000007bffffffffffffffffffffffffffffffffffffffffffffffffffffffff1916827bffffffffffffffffffffffffffffffffffffffffffffffffffffffff1916149050919050565b612ad184848484612f8a565b6001811115612b15576040517f08c379a0000000000000000000000000000000000000000000000000000000008152600401612b0c906142e6565b60405180910390fd5b6000829050600073ffffffffffffffffffffffffffffffffffffffff168573ffffffffffffffffffffffffffffffffffffffff161415612b5d57612b5881612f90565b612b9c565b8373ffffffffffffffffffffffffffffffffffffffff168573ffffffffffffffffffffffffffffffffffffffff1614612b9b57612b9a8582612fd9565b5b5b600073ffffffffffffffffffffffffffffffffffffffff168473ffffffffffffffffffffffffffffffffffffffff161415612bdf57612bda81613146565b612c1e565b8473ffffffffffffffffffffffffffffffffffffffff168473ffffffffffffffffffffffffffffffffffffffff1614612c1d57612c1c8482613289565b5b5b5050505050565b600073ffffffffffffffffffffffffffffffffffffffff168273ffffffffffffffffffffffffffffffffffffffff161415612c95576040517f08c379a0000000000000000000000000000000000000000000000000000000008152600401612c8c90614226565b60405180910390fd5b612c9e816126af565b15612cde576040517f08c379a0000000000000000000000000000000000000000000000000000000008152600401612cd590614106565b60405180910390fd5b612cec6000838360016127d2565b612cf5816126af565b15612d35576040517f08c379a0000000000000000000000000000000000000000000000000000000008152600401612d2c90614106565b60405180910390fd5b6001600360008473ffffffffffffffffffffffffffffffffffffffff1673ffffffffffffffffffffffffffffffffffffffff16815260200190815260200160002060008282540192505081905550816002600083815260200190815260200160002060006101000a81548173ffffffffffffffffffffffffffffffffffffffff021916908373ffffffffffffffffffffffffffffffffffffffff160217905550808273ffffffffffffffffffffffffffffffffffffffff16600073ffffffffffffffffffffffffffffffffffffffff167fddf252ad1be2c89b69c2b068fc378daa952ba7f163c4a11628f55a4df523b3ef60405160405180910390a4612e3f6000838360016127e4565b5050565b6000808273ffffffffffffffffffffffffffffffffffffffff163b119050919050565b606060006001612e7584613308565b01905060008167ffffffffffffffff811115612eba577f4e487b7100000000000000000000000000000000000000000000000000000000600052604160045260246000fd5b6040519080825280601f01601f191660200182016040528015612eec5781602001600182028036833780820191505090505b509050600082602001820190505b600115612f7f578080600190039150507f3031323334353637383961626364656600000000000000000000000000000000600a86061a8153600a8581612f69577f4e487b7100000000000000000000000000000000000000000000000000000000600052601260045260246000fd5b0494506000851415612f7a57612f7f565b612efa565b819350505050919050565b50505050565b6008805490506009600083815260200190815260200160002081905550600881908060018154018082558091505060019003906000526020600020016000909190919091505550565b60006001612fe6846115ef565b612ff09190614469565b90506000600760008481526020019081526020016000205490508181146130d5576000600660008673ffffffffffffffffffffffffffffffffffffffff1673ffffffffffffffffffffffffffffffffffffffff168152602001908152602001600020600084815260200190815260200160002054905080600660008773ffffffffffffffffffffffffffffffffffffffff1673ffffffffffffffffffffffffffffffffffffffff168152602001908152602001600020600084815260200190815260200160002081905550816007600083815260200190815260200160002081905550505b6007600084815260200190815260200160002060009055600660008573ffffffffffffffffffffffffffffffffffffffff1673ffffffffffffffffffffffffffffffffffffffff16815260200190815260200160002060008381526020019081526020016000206000905550505050565b6000600160088054905061315a9190614469565b90506000600960008481526020019081526020016000205490506000600883815481106131b0577f4e487b7100000000000000000000000000000000000000000000000000000000600052603260045260246000fd5b9060005260206000200154905080600883815481106131f8577f4e487b7100000000000000000000000000000000000000000000000000000000600052603260045260246000fd5b90600052602060002001819055508160096000838152602001908152602001600020819055506009600085815260200190815260200160002060009055600880548061326d577f4e487b7100000000000000000000000000000000000000000000000000000000600052603160045260246000fd5b6001900381819060005260206000200160009055905550505050565b6000613294836115ef565b905081600660008573ffffffffffffffffffffffffffffffffffffffff1673ffffffffffffffffffffffffffffffffffffffff168152602001908152602001600020600083815260200190815260200160002081905550806007600084815260200190815260200160002081905550505050565b600080600090507a184f03e93ff9f4daa797ed6e38ed64bf6a1f010000000000000000831061338c577a184f03e93ff9f4daa797ed6e38ed64bf6a1f0100000000000000008381613382577f4e487b7100000000000000000000000000000000000000000000000000000000600052601260045260246000fd5b0492506040810190505b6d04ee2d6d415b85acef810000000083106133ef576d04ee2d6d415b85acef810000000083816133e5577f4e487b7100000000000000000000000000000000000000000000000000000000600052601260045260246000fd5b0492506020810190505b662386f26fc10000831061344457662386f26fc10000838161343a577f4e487b7100000000000000000000000000000000000000000000000000000000600052601260045260246000fd5b0492506010810190505b6305f5e1008310613493576305f5e1008381613489577f4e487b7100000000000000000000000000000000000000000000000000000000600052601260045260246000fd5b0492506008810190505b61271083106134de5761271083816134d4577f4e487b7100000000000000000000000000000000000000000000000000000000600052601260045260246000fd5b0492506004810190505b60648310613527576064838161351d577f4e487b7100000000000000000000000000000000000000000000000000000000600052601260045260246000fd5b0492506002810190505b600a8310613536576001810190505b80915050919050565b50805461354b90614553565b6000825580601f1061355d575061357c565b601f01602090049060005260206000209081019061357b919061363c565b5b50565b6040518060600160405280600073ffffffffffffffffffffffffffffffffffffffff16815260200160008152602001606081525090565b8280546135c290614553565b90600052602060002090601f0160209004810192826135e4576000855561362b565b82601f106135fd57805160ff191683800117855561362b565b8280016001018555821561362b579182015b8281111561362a57825182559160200191906001019061360f565b5b509050613638919061363c565b5090565b5b8082111561365557600081600090555060010161363d565b5090565b600061366c613667846143a8565b614383565b90508281526020810184848401111561368457600080fd5b61368f848285614511565b509392505050565b60006136aa6136a5846143d9565b614383565b9050828152602081018484840111156136c257600080fd5b6136cd848285614511565b509392505050565b6000813590506136e481614c20565b92915050565b6000813590506136f981614c37565b92915050565b60008135905061370e81614c4e565b92915050565b60008151905061372381614c4e565b92915050565b600082601f83011261373a57600080fd5b813561374a848260208601613659565b91505092915050565b600082601f83011261376457600080fd5b8135613774848260208601613697565b91505092915050565b60008135905061378c81614c65565b92915050565b6000602082840312156137a457600080fd5b60006137b2848285016136d5565b91505092915050565b600080604083850312156137ce57600080fd5b60006137dc858286016136d5565b92505060206137ed858286016136d5565b9150509250929050565b60008060006060848603121561380c57600080fd5b600061381a868287016136d5565b935050602061382b868287016136d5565b925050604061383c8682870161377d565b9150509250925092565b6000806000806080858703121561385c57600080fd5b600061386a878288016136d5565b945050602061387b878288016136d5565b935050604061388c8782880161377d565b925050606085013567ffffffffffffffff8111156138a957600080fd5b6138b587828801613729565b91505092959194509250565b600080604083850312156138d457600080fd5b60006138e2858286016136d5565b92505060206138f3858286016136ea565b9150509250929050565b6000806040838503121561391057600080fd5b600061391e858286016136d5565b925050602083013567ffffffffffffffff81111561393b57600080fd5b61394785828601613753565b9150509250929050565b6000806040838503121561396457600080fd5b6000613972858286016136d5565b92505060206139838582860161377d565b9150509250929050565b60006020828403121561399f57600080fd5b60006139ad848285016136ff565b91505092915050565b6000602082840312156139c857600080fd5b60006139d684828501613714565b91505092915050565b6000602082840312156139f157600080fd5b60006139ff8482850161377d565b91505092915050565b60008060408385031215613a1b57600080fd5b6000613a298582860161377d565b9250506020613a3a8582860161377d565b9150509250929050565b613a4d8161449d565b82525050565b613a5c8161449d565b82525050565b613a6b816144af565b82525050565b6000613a7c8261440a565b613a868185614420565b9350613a96818560208601614520565b613a9f81614643565b840191505092915050565b6000613ab582614415565b613abf818561443c565b9350613acf818560208601614520565b613ad881614643565b840191505092915050565b6000613aee82614415565b613af8818561444d565b9350613b08818560208601614520565b613b1181614643565b840191505092915050565b6000613b2782614415565b613b31818561445e565b9350613b41818560208601614520565b80840191505092915050565b6000613b5a60118361444d565b9150613b6582614654565b602082019050919050565b6000613b7d602d8361444d565b9150613b888261467d565b604082019050919050565b6000613ba0602b8361444d565b9150613bab826146cc565b604082019050919050565b6000613bc360328361444d565b9150613bce8261471b565b604082019050919050565b6000613be660268361444d565b9150613bf18261476a565b604082019050919050565b6000613c0960258361444d565b9150613c14826147b9565b604082019050919050565b6000613c2c60188361444d565b9150613c3782614808565b602082019050919050565b6000613c4f601c8361444d565b9150613c5a82614831565b602082019050919050565b6000613c72600a8361444d565b9150613c7d8261485a565b602082019050919050565b6000613c9560248361444d565b9150613ca082614883565b604082019050919050565b6000613cb860198361444d565b9150613cc3826148d2565b602082019050919050565b6000613cdb60158361444d565b9150613ce6826148fb565b602082019050919050565b6000613cfe60148361444d565b9150613d0982614924565b602082019050919050565b6000613d2160298361444d565b9150613d2c8261494d565b604082019050919050565b6000613d44602e8361444d565b9150613d4f8261499c565b604082019050919050565b6000613d67600e8361444d565b9150613d72826149eb565b602082019050919050565b6000613d8a60208361444d565b9150613d9582614a14565b602082019050919050565b6000613dad60208361444d565b9150613db882614a3d565b602082019050919050565b6000613dd060188361444d565b9150613ddb82614a66565b602082019050919050565b6000613df360218361444d565b9150613dfe82614a8f565b604082019050919050565b6000613e16600083614431565b9150613e2182614ade565b600082019050919050565b6000613e39603d8361444d565b9150613e4482614ae1565b604082019050919050565b6000613e5c602c8361444d565b9150613e6782614b30565b604082019050919050565b6000613e7f60358361444d565b9150613e8a82614b7f565b604082019050919050565b6000613ea2600e8361444d565b9150613ead82614bce565b602082019050919050565b6000613ec560108361444d565b9150613ed082614bf7565b602082019050919050565b6000606083016000830151613ef36000860182613a44565b506020830151613f066020860182613f2b565b5060408301518482036040860152613f1e8282613aaa565b9150508091505092915050565b613f3481614507565b82525050565b613f4381614507565b82525050565b6000613f558285613b1c565b9150613f618284613b1c565b91508190509392505050565b6000613f7882613e09565b9150819050919050565b6000602082019050613f976000830184613a53565b92915050565b6000608082019050613fb26000830187613a53565b613fbf6020830186613a53565b613fcc6040830185613f3a565b8181036060830152613fde8184613a71565b905095945050505050565b6000602082019050613ffe6000830184613a62565b92915050565b6000602082019050818103600083015261401e8184613ae3565b905092915050565b6000602082019050818103600083015261403f81613b4d565b9050919050565b6000602082019050818103600083015261405f81613b70565b9050919050565b6000602082019050818103600083015261407f81613b93565b9050919050565b6000602082019050818103600083015261409f81613bb6565b9050919050565b600060208201905081810360008301526140bf81613bd9565b9050919050565b600060208201905081810360008301526140df81613bfc565b9050919050565b600060208201905081810360008301526140ff81613c1f565b9050919050565b6000602082019050818103600083015261411f81613c42565b9050919050565b6000602082019050818103600083015261413f81613c65565b9050919050565b6000602082019050818103600083015261415f81613c88565b9050919050565b6000602082019050818103600083015261417f81613cab565b9050919050565b6000602082019050818103600083015261419f81613cce565b9050919050565b600060208201905081810360008301526141bf81613cf1565b9050919050565b600060208201905081810360008301526141df81613d14565b9050919050565b600060208201905081810360008301526141ff81613d37565b9050919050565b6000602082019050818103600083015261421f81613d5a565b9050919050565b6000602082019050818103600083015261423f81613d7d565b9050919050565b6000602082019050818103600083015261425f81613da0565b9050919050565b6000602082019050818103600083015261427f81613dc3565b9050919050565b6000602082019050818103600083015261429f81613de6565b9050919050565b600060208201905081810360008301526142bf81613e2c565b9050919050565b600060208201905081810360008301526142df81613e4f565b9050919050565b600060208201905081810360008301526142ff81613e72565b9050919050565b6000602082019050818103600083015261431f81613e95565b9050919050565b6000602082019050818103600083015261433f81613eb8565b9050919050565b600060208201905081810360008301526143608184613edb565b905092915050565b600060208201905061437d6000830184613f3a565b92915050565b600061438d61439e565b90506143998282614585565b919050565b6000604051905090565b600067ffffffffffffffff8211156143c3576143c2614614565b5b6143cc82614643565b9050602081019050919050565b600067ffffffffffffffff8211156143f4576143f3614614565b5b6143fd82614643565b9050602081019050919050565b600081519050919050565b600081519050919050565b600082825260208201905092915050565b600081905092915050565b600082825260208201905092915050565b600082825260208201905092915050565b600081905092915050565b600061447482614507565b915061447f83614507565b925082821015614492576144916145b6565b5b828203905092915050565b60006144a8826144e7565b9050919050565b60008115159050919050565b60007fffffffff0000000000000000000000000000000000000000000000000000000082169050919050565b600073ffffffffffffffffffffffffffffffffffffffff82169050919050565b6000819050919050565b82818337600083830152505050565b60005b8381101561453e578082015181840152602081019050614523565b8381111561454d576000848401525b50505050565b6000600282049050600182168061456b57607f821691505b6020821081141561457f5761457e6145e5565b5b50919050565b61458e82614643565b810181811067ffffffffffffffff821117156145ad576145ac614614565b5b80604052505050565b7f4e487b7100000000000000000000000000000000000000000000000000000000600052601160045260246000fd5b7f4e487b7100000000000000000000000000000000000000000000000000000000600052602260045260246000fd5b7f4e487b7100000000000000000000000000000000000000000000000000000000600052604160045260246000fd5b6000601f19601f8301169050919050565b7f4e6f7420656e6f756768206d6f6e657921000000000000000000000000000000600082015250565b7f4552433732313a2063616c6c6572206973206e6f7420746f6b656e206f776e6560008201527f72206f7220617070726f76656400000000000000000000000000000000000000602082015250565b7f455243373231456e756d657261626c653a206f776e657220696e646578206f7560008201527f74206f6620626f756e6473000000000000000000000000000000000000000000602082015250565b7f4552433732313a207472616e7366657220746f206e6f6e20455243373231526560008201527f63656976657220696d706c656d656e7465720000000000000000000000000000602082015250565b7f4f776e61626c653a206e6577206f776e657220697320746865207a65726f206160008201527f6464726573730000000000000000000000000000000000000000000000000000602082015250565b7f4552433732313a207472616e736665722066726f6d20696e636f72726563742060008201527f6f776e6572000000000000000000000000000000000000000000000000000000602082015250565b7f43616e204e6f742062757920796f7572206f776e204e46540000000000000000600082015250565b7f4552433732313a20746f6b656e20616c7265616479206d696e74656400000000600082015250565b7f4e6f74206c697374656400000000000000000000000000000000000000000000600082015250565b7f4552433732313a207472616e7366657220746f20746865207a65726f2061646460008201527f7265737300000000000000000000000000000000000000000000000000000000602082015250565b7f4552433732313a20617070726f766520746f2063616c6c657200000000000000600082015250565b7f596f7520617265206e6f7420746865206f776e65720000000000000000000000600082015250565b7f546f6b656e20646f6573206e6f74206578697374000000000000000000000000600082015250565b7f4552433732313a2061646472657373207a65726f206973206e6f74206120766160008201527f6c6964206f776e65720000000000000000000000000000000000000000000000602082015250565b7f45524337323155524953746f726167653a2055524920736574206f66206e6f6e60008201527f6578697374656e7420746f6b656e000000000000000000000000000000000000602082015250565b7f5061796d656e74206661696c6564000000000000000000000000000000000000600082015250565b7f4552433732313a206d696e7420746f20746865207a65726f2061646472657373600082015250565b7f4f776e61626c653a2063616c6c6572206973206e6f7420746865206f776e6572600082015250565b7f4552433732313a20696e76616c696420746f6b656e2049440000000000000000600082015250565b7f4552433732313a20617070726f76616c20746f2063757272656e74206f776e6560008201527f7200000000000000000000000000000000000000000000000000000000000000602082015250565b50565b7f4552433732313a20617070726f76652063616c6c6572206973206e6f7420746f60008201527f6b656e206f776e6572206f7220617070726f76656420666f7220616c6c000000602082015250565b7f455243373231456e756d657261626c653a20676c6f62616c20696e646578206f60008201527f7574206f6620626f756e64730000000000000000000000000000000000000000602082015250565b7f455243373231456e756d657261626c653a20636f6e736563757469766520747260008201527f616e7366657273206e6f7420737570706f727465640000000000000000000000602082015250565b7f416c7265616479206c6973746564000000000000000000000000000000000000600082015250565b7f546f6b656e206e6f74206c697374656400000000000000000000000000000000600082015250565b614c298161449d565b8114614c3457600080fd5b50565b614c40816144af565b8114614c4b57600080fd5b50565b614c57816144bb565b8114614c6257600080fd5b50565b614c6e81614507565b8114614c7957600080fd5b5056fea2646970667358221220bc0ec58ee4bde9ea9bf59226dbc83bf64d17520351710d692c2449a374095e3c64736f6c63430008040033",
  "linkReferences": {},
  "deployedLinkReferences": {}
}